{
  "_format": "hh-sol-artifact-1",
  "contractName": "GinnyPig",
  "sourceName": "contracts/GinnyPig.sol",
  "abi": [
    {
      "inputs": [],
      "stateMutability": "payable",
      "type": "constructor"
    },
    {
      "inputs": [],
      "name": "getBalance",
      "outputs": [
        {
          "internalType": "uint256",
          "name": "",
          "type": "uint256"
        }
      ],
      "stateMutability": "view",
      "type": "function"
    },
    {
      "inputs": [],
      "name": "getOwner",
      "outputs": [
        {
          "internalType": "address",
          "name": "",
          "type": "address"
        }
      ],
      "stateMutability": "view",
      "type": "function"
    },
    {
      "inputs": [],
      "name": "withdraw",
      "outputs": [],
      "stateMutability": "nonpayable",
      "type": "function"
    },
    {
      "stateMutability": "payable",
      "type": "receive"
    }
  ],
  "bytecode": "0x6080604052336000806101000a81548173ffffffffffffffffffffffffffffffffffffffff021916908373ffffffffffffffffffffffffffffffffffffffff1602179055506103ce806100536000396000f3fe6080604052600436106100385760003560e01c806312065fe0146100445780633ccfd60b1461006f578063893d20e8146100865761003f565b3661003f57005b600080fd5b34801561005057600080fd5b506100596100b1565b6040516100669190610330565b60405180910390f35b34801561007b57600080fd5b506100846100b9565b005b34801561009257600080fd5b5061009b610180565b6040516100a891906102d5565b60405180910390f35b600047905090565b60008054906101000a900473ffffffffffffffffffffffffffffffffffffffff1673ffffffffffffffffffffffffffffffffffffffff163373ffffffffffffffffffffffffffffffffffffffff1614610147576040517f08c379a000000000000000000000000000000000000000000000000000000000815260040161013e906102f0565b60405180910390fd5b60008054906101000a900473ffffffffffffffffffffffffffffffffffffffff1673ffffffffffffffffffffffffffffffffffffffff16ff5b60008060009054906101000a900473ffffffffffffffffffffffffffffffffffffffff1673ffffffffffffffffffffffffffffffffffffffff163373ffffffffffffffffffffffffffffffffffffffff1614610211576040517f08c379a000000000000000000000000000000000000000000000000000000000815260040161020890610310565b60405180910390fd5b60008054906101000a900473ffffffffffffffffffffffffffffffffffffffff16905090565b6102408161035c565b82525050565b6000610253601a8361034b565b91507f6f6e6c79206f776e65722063616e2077697468647261772069740000000000006000830152602082019050919050565b600061029360158361034b565b91507f6f6e6c79206f776e65722063616e2072756e20697400000000000000000000006000830152602082019050919050565b6102cf8161038e565b82525050565b60006020820190506102ea6000830184610237565b92915050565b6000602082019050818103600083015261030981610246565b9050919050565b6000602082019050818103600083015261032981610286565b9050919050565b600060208201905061034560008301846102c6565b92915050565b600082825260208201905092915050565b60006103678261036e565b9050919050565b600073ffffffffffffffffffffffffffffffffffffffff82169050919050565b600081905091905056fea26469706673582212207415cca38362f48f0f8223c1055ca1a703ed34c840c70c6d700e2e85743b4dba64736f6c63430008000033",
  "linkReferences": {},
  "deployedLinkReferences": {}
}