{
  "contractName": "Validation",
  "abi": [
    {
      "constant": true,
      "inputs": [
        {
          "name": "msgHash",
          "type": "bytes32"
        },
        {
          "name": "v",
          "type": "uint8"
        },
        {
          "name": "r",
          "type": "bytes32"
        },
        {
          "name": "s",
          "type": "bytes32"
        }
      ],
      "name": "recoverAddr",
      "outputs": [
        {
          "name": "",
          "type": "address"
        }
      ],
      "payable": false,
      "stateMutability": "pure",
      "type": "function"
    },
    {
      "constant": true,
      "inputs": [
        {
          "name": "_addr",
          "type": "address"
        },
        {
          "name": "msgHash",
          "type": "bytes32"
        },
        {
          "name": "v",
          "type": "uint8"
        },
        {
          "name": "r",
          "type": "bytes32"
        },
        {
          "name": "s",
          "type": "bytes32"
        }
      ],
      "name": "isSigned",
      "outputs": [
        {
          "name": "",
          "type": "bool"
        }
      ],
      "payable": false,
      "stateMutability": "pure",
      "type": "function"
    }
  ],
  "bytecode": "0x608060405234801561001057600080fd5b506102f2806100206000396000f30060806040526004361061004c576000357c0100000000000000000000000000000000000000000000000000000000900463ffffffff1680638677ebe814610051578063e5df669f146100e3575b600080fd5b34801561005d57600080fd5b506100c9600480360381019080803573ffffffffffffffffffffffffffffffffffffffff1690602001909291908035600019169060200190929190803560ff1690602001909291908035600019169060200190929190803560001916906020019092919050505061017d565b604051808215151515815260200191505060405180910390f35b3480156100ef57600080fd5b5061013b6004803603810190808035600019169060200190929190803560ff16906020019092919080356000191690602001909291908035600019169060200190929190505050610239565b604051808273ffffffffffffffffffffffffffffffffffffffff1673ffffffffffffffffffffffffffffffffffffffff16815260200191505060405180910390f35b60008573ffffffffffffffffffffffffffffffffffffffff16600186868686604051600081526020016040526040518085600019166000191681526020018460ff1660ff1681526020018360001916600019168152602001826000191660001916815260200194505050505060206040516020810390808403906000865af115801561020d573d6000803e3d6000fd5b5050506020604051035173ffffffffffffffffffffffffffffffffffffffff1614905095945050505050565b6000600185858585604051600081526020016040526040518085600019166000191681526020018460ff1660ff1681526020018360001916600019168152602001826000191660001916815260200194505050505060206040516020810390808403906000865af11580156102b2573d6000803e3d6000fd5b5050506020604051035190509493505050505600a165627a7a723058208e585b2deb828e7023d292225c82472fe498d98a1a9aab65278a4d733e9d89b80029",
  "source": "pragma solidity ^0.4.22;\n\ncontract Validation {\n    \n    function recoverAddr(bytes32 msgHash, uint8 v, bytes32 r, bytes32 s) public pure returns (address) {\n        return ecrecover(msgHash, v, r, s);\n    }\n        \n    function isSigned(address _addr, bytes32 msgHash, uint8 v, bytes32 r, bytes32 s) public pure returns (bool) {\n        return ecrecover(msgHash, v, r, s) == _addr;\n    }\n}",
  "sourcePath": "/home/dev-d/Desktop/BlockChain/VerifySign/contracts/Validation.sol",
  "compiler": {
    "name": "solc",
    "version": "0.4.24+commit.e67f0147.Emscripten.clang"
  },
  "schemaVersion": "2.0.1",
  "updatedAt": "2018-09-23T11:47:50.459Z"
}