{
  "contractName": "ChannelManager",
  "abi": [
    {
      "constant": true,
      "inputs": [],
      "name": "channel_min_deposit_limit",
      "outputs": [
        {
          "name": "",
          "type": "uint256"
        }
      ],
      "payable": false,
      "stateMutability": "view",
      "type": "function"
    },
    {
      "constant": true,
      "inputs": [
        {
          "name": "",
          "type": "bytes32"
        }
      ],
      "name": "channels",
      "outputs": [
        {
          "name": "deposit",
          "type": "uint256"
        },
        {
          "name": "open_block_number",
          "type": "uint256"
        },
        {
          "name": "startTime",
          "type": "uint256"
        },
        {
          "name": "expiryTime",
          "type": "uint256"
        }
      ],
      "payable": false,
      "stateMutability": "view",
      "type": "function"
    },
    {
      "constant": true,
      "inputs": [],
      "name": "owner_address",
      "outputs": [
        {
          "name": "",
          "type": "address"
        }
      ],
      "payable": false,
      "stateMutability": "view",
      "type": "function"
    },
    {
      "constant": true,
      "inputs": [],
      "name": "token",
      "outputs": [
        {
          "name": "",
          "type": "address"
        }
      ],
      "payable": false,
      "stateMutability": "view",
      "type": "function"
    },
    {
      "inputs": [
        {
          "name": "_token_address",
          "type": "address"
        }
      ],
      "payable": false,
      "stateMutability": "nonpayable",
      "type": "constructor"
    },
    {
      "anonymous": false,
      "inputs": [
        {
          "indexed": true,
          "name": "_sender_address",
          "type": "address"
        },
        {
          "indexed": true,
          "name": "_receiver_address",
          "type": "address"
        },
        {
          "indexed": false,
          "name": "_deposit",
          "type": "uint256"
        }
      ],
      "name": "ChannelCreated",
      "type": "event"
    },
    {
      "anonymous": false,
      "inputs": [
        {
          "indexed": true,
          "name": "_sender_address",
          "type": "address"
        },
        {
          "indexed": true,
          "name": "_receiver_address",
          "type": "address"
        },
        {
          "indexed": true,
          "name": "_open_block_number",
          "type": "uint256"
        },
        {
          "indexed": false,
          "name": "_balance",
          "type": "uint256"
        },
        {
          "indexed": false,
          "name": "_receiver_tokens",
          "type": "uint256"
        }
      ],
      "name": "ChannelSettled",
      "type": "event"
    },
    {
      "constant": false,
      "inputs": [
        {
          "name": "_receiver_address",
          "type": "address"
        },
        {
          "name": "_deposit",
          "type": "uint256"
        }
      ],
      "name": "createChannel",
      "outputs": [],
      "payable": false,
      "stateMutability": "nonpayable",
      "type": "function"
    },
    {
      "constant": false,
      "inputs": [
        {
          "name": "_receiver_address",
          "type": "address"
        },
        {
          "name": "_open_block_number",
          "type": "uint256"
        },
        {
          "name": "_balance",
          "type": "uint256"
        },
        {
          "name": "_balance_msg_sig",
          "type": "bytes"
        },
        {
          "name": "_closing_sig",
          "type": "bytes"
        }
      ],
      "name": "channelClose",
      "outputs": [],
      "payable": false,
      "stateMutability": "nonpayable",
      "type": "function"
    },
    {
      "constant": true,
      "inputs": [
        {
          "name": "_receiver_address",
          "type": "address"
        },
        {
          "name": "_open_block_number",
          "type": "uint256"
        },
        {
          "name": "_balance",
          "type": "uint256"
        },
        {
          "name": "_balance_msg_sig",
          "type": "bytes"
        }
      ],
      "name": "extractBalanceProofSignature",
      "outputs": [
        {
          "name": "",
          "type": "address"
        }
      ],
      "payable": false,
      "stateMutability": "view",
      "type": "function"
    },
    {
      "constant": true,
      "inputs": [
        {
          "name": "_sender_address",
          "type": "address"
        },
        {
          "name": "_open_block_number",
          "type": "uint256"
        },
        {
          "name": "_balance",
          "type": "uint256"
        },
        {
          "name": "_closing_sig",
          "type": "bytes"
        }
      ],
      "name": "extractClosingSignature",
      "outputs": [
        {
          "name": "",
          "type": "address"
        }
      ],
      "payable": false,
      "stateMutability": "view",
      "type": "function"
    },
    {
      "constant": true,
      "inputs": [
        {
          "name": "_sender_address",
          "type": "address"
        },
        {
          "name": "_receiver_address",
          "type": "address"
        },
        {
          "name": "_open_block_number",
          "type": "uint256"
        }
      ],
      "name": "getKey",
      "outputs": [
        {
          "name": "data",
          "type": "bytes32"
        }
      ],
      "payable": false,
      "stateMutability": "pure",
      "type": "function"
    }
  ],
  "bytecode": "0x608060405234801561001057600080fd5b506040516020806114cc8339810180604052810190808051906020019092919050505080600160006101000a81548173ffffffffffffffffffffffffffffffffffffffff021916908373ffffffffffffffffffffffffffffffffffffffff160217905550336000806101000a81548173ffffffffffffffffffffffffffffffffffffffff021916908373ffffffffffffffffffffffffffffffffffffffff16021790555050611408806100c46000396000f300608060405260043610610099576000357c0100000000000000000000000000000000000000000000000000000000900463ffffffff1680630814191e1461009e5780630ee7cffd146100c95780634b728c3e146101a65780635de3a9791461022d5780637a7ebd7b146102b657806380edef8e146103105780639484e00e14610367578063bb510a7714610444578063fc0c546a14610491575b600080fd5b3480156100aa57600080fd5b506100b36104e8565b6040518082815260200191505060405180910390f35b3480156100d557600080fd5b50610164600480360381019080803573ffffffffffffffffffffffffffffffffffffffff1690602001909291908035906020019092919080359060200190929190803590602001908201803590602001908080601f01602080910402602001604051908101604052809392919081815260200183838082843782019150505050505091929192905050506104f5565b604051808273ffffffffffffffffffffffffffffffffffffffff1673ffffffffffffffffffffffffffffffffffffffff16815260200191505060405180910390f35b3480156101b257600080fd5b5061022b600480360381019080803573ffffffffffffffffffffffffffffffffffffffff1690602001909291908035906020019092919080359060200190929190803590602001908201803590602001919091929391929390803590602001908201803590602001919091929391929390505050610827565b005b34801561023957600080fd5b50610298600480360381019080803573ffffffffffffffffffffffffffffffffffffffff169060200190929190803573ffffffffffffffffffffffffffffffffffffffff169060200190929190803590602001909291905050506108fb565b60405180826000191660001916815260200191505060405180910390f35b3480156102c257600080fd5b506102e56004803603810190808035600019169060200190929190505050610a0e565b6040518085815260200184815260200183815260200182815260200194505050505060405180910390f35b34801561031c57600080fd5b50610325610a3e565b604051808273ffffffffffffffffffffffffffffffffffffffff1673ffffffffffffffffffffffffffffffffffffffff16815260200191505060405180910390f35b34801561037357600080fd5b50610402600480360381019080803573ffffffffffffffffffffffffffffffffffffffff1690602001909291908035906020019092919080359060200190929190803590602001908201803590602001908080601f0160208091040260200160405190810160405280939291908181526020018383808284378201915050505050509192919290505050610a63565b604051808273ffffffffffffffffffffffffffffffffffffffff1673ffffffffffffffffffffffffffffffffffffffff16815260200191505060405180910390f35b34801561045057600080fd5b5061048f600480360381019080803573ffffffffffffffffffffffffffffffffffffffff16906020019092919080359060200190929190505050610d95565b005b34801561049d57600080fd5b506104a6610da4565b604051808273ffffffffffffffffffffffffffffffffffffffff1673ffffffffffffffffffffffffffffffffffffffff16815260200191505060405180910390f35b68056bc75e2d6310000081565b600080600060405160200180807f737472696e67206d6573736167655f6964000000000000000000000000000000815250601101807f616464726573732073656e646572000000000000000000000000000000000000815250600e01807f75696e74333220626c6f636b5f63726561746564000000000000000000000000815250601401807f75696e743139322062616c616e63650000000000000000000000000000000000815250600f01807f6164647265737320636f6e74726163740000000000000000000000000000000081525060100190506040516020818303038152906040526040518082805190602001908083835b60208310151561060f57805182526020820191506020810190506020830392506105ea565b6001836020036101000a03801982511681845116808217855250505050505090500191505060405180910390208787873060405160200180807f526563656976657220636c6f73696e67207369676e6174757265000000000000815250601a018573ffffffffffffffffffffffffffffffffffffffff1673ffffffffffffffffffffffffffffffffffffffff166c010000000000000000000000000281526014018481526020018381526020018273ffffffffffffffffffffffffffffffffffffffff1673ffffffffffffffffffffffffffffffffffffffff166c010000000000000000000000000281526014019450505050506040516020818303038152906040526040518082805190602001908083835b6020831015156107475780518252602082019150602081019050602083039250610722565b6001836020036101000a03801982511681845116808217855250505050505090500191505060405180910390206040516020018083600019166000191681526020018260001916600019168152602001925050506040516020818303038152906040526040518082805190602001908083835b6020831015156107df57805182526020820191506020810190506020830392506107ba565b6001836020036101000a038019825116818451168082178552505050505050905001915050604051809103902091506108188285610dca565b90508092505050949350505050565b60008061086889898989898080601f016020809104026020016040519081016040528093929190818152602001838380828437820191505050505050610a63565b91506108a882898987878080601f0160208091040260200160405190810160405280939291908181526020018383808284378201915050505050506104f5565b90508873ffffffffffffffffffffffffffffffffffffffff168173ffffffffffffffffffffffffffffffffffffffff161415156108e457600080fd5b6108f082828a8a610ee0565b505050505050505050565b6000838383604051602001808473ffffffffffffffffffffffffffffffffffffffff1673ffffffffffffffffffffffffffffffffffffffff166c010000000000000000000000000281526014018373ffffffffffffffffffffffffffffffffffffffff1673ffffffffffffffffffffffffffffffffffffffff166c0100000000000000000000000002815260140182815260200193505050506040516020818303038152906040526040518082805190602001908083835b6020831015156109d857805182526020820191506020810190506020830392506109b3565b6001836020036101000a038019825116818451168082178552505050505050905001915050604051809103902090509392505050565b60026020528060005260406000206000915090508060000154908060010154908060020154908060030154905084565b6000809054906101000a900473ffffffffffffffffffffffffffffffffffffffff1681565b600080600060405160200180807f737472696e67206d6573736167655f6964000000000000000000000000000000815250601101807f6164647265737320726563656976657200000000000000000000000000000000815250601001807f75696e74333220626c6f636b5f63726561746564000000000000000000000000815250601401807f75696e743139322062616c616e63650000000000000000000000000000000000815250600f01807f6164647265737320636f6e74726163740000000000000000000000000000000081525060100190506040516020818303038152906040526040518082805190602001908083835b602083101515610b7d5780518252602082019150602081019050602083039250610b58565b6001836020036101000a03801982511681845116808217855250505050505090500191505060405180910390208787873060405160200180807f53656e6465722062616c616e63652070726f6f66207369676e61747572650000815250601e018573ffffffffffffffffffffffffffffffffffffffff1673ffffffffffffffffffffffffffffffffffffffff166c010000000000000000000000000281526014018481526020018381526020018273ffffffffffffffffffffffffffffffffffffffff1673ffffffffffffffffffffffffffffffffffffffff166c010000000000000000000000000281526014019450505050506040516020818303038152906040526040518082805190602001908083835b602083101515610cb55780518252602082019150602081019050602083039250610c90565b6001836020036101000a03801982511681845116808217855250505050505090500191505060405180910390206040516020018083600019166000191681526020018260001916600019168152602001925050506040516020818303038152906040526040518082805190602001908083835b602083101515610d4d5780518252602082019150602081019050602083039250610d28565b6001836020036101000a03801982511681845116808217855250505050505090500191505060405180910390209150610d868285610dca565b90508092505050949350505050565b610da0338383611254565b5050565b600160009054906101000a900473ffffffffffffffffffffffffffffffffffffffff1681565b60008060008060418551141515610de057600080fd5b6020850151925060408501519150606085015160001a9050601b8160ff161015610e0b57601b810190505b601b8160ff161480610e205750601c8160ff16145b1515610e2b57600080fd5b600186828585604051600081526020016040526040518085600019166000191681526020018460ff1660ff1681526020018360001916600019168152602001826000191660001916815260200194505050505060206040516020810390808403906000865af1158015610ea2573d6000803e3d6000fd5b50505060206040510351935060008473ffffffffffffffffffffffffffffffffffffffff1614151515610ed457600080fd5b83935050505092915050565b6000610eea6113b3565b6000610ef78787876108fb565b925060026000846000191660001916815260200190815260200160002060806040519081016040529081600082015481526020016001820154815260200160028201548152602001600382015481525050915060008260200151111515610f5d57600080fd5b81600001518411151515610f7057600080fd5b6002600084600019166000191681526020019081526020016000206000808201600090556001820160009055600282016000905560038201600090555050839050600160009054906101000a900473ffffffffffffffffffffffffffffffffffffffff1673ffffffffffffffffffffffffffffffffffffffff1663a9059cbb87866040518363ffffffff167c0100000000000000000000000000000000000000000000000000000000028152600401808373ffffffffffffffffffffffffffffffffffffffff1673ffffffffffffffffffffffffffffffffffffffff16815260200182815260200192505050602060405180830381600087803b15801561107657600080fd5b505af115801561108a573d6000803e3d6000fd5b505050506040513d60208110156110a057600080fd5b810190808051906020019092919050505015156110bc57600080fd5b600160009054906101000a900473ffffffffffffffffffffffffffffffffffffffff1673ffffffffffffffffffffffffffffffffffffffff1663a9059cbb8861111287866000015161139a90919063ffffffff16565b6040518363ffffffff167c0100000000000000000000000000000000000000000000000000000000028152600401808373ffffffffffffffffffffffffffffffffffffffff1673ffffffffffffffffffffffffffffffffffffffff16815260200182815260200192505050602060405180830381600087803b15801561119757600080fd5b505af11580156111ab573d6000803e3d6000fd5b505050506040513d60208110156111c157600080fd5b810190808051906020019092919050505015156111dd57600080fd5b848673ffffffffffffffffffffffffffffffffffffffff168873ffffffffffffffffffffffffffffffffffffffff167fcd23ec4d6400ff8c64e28ebe23c6490bd1da269cd30a78560e39bf3364989d6d8785604051808381526020018281526020019250505060405180910390a450505050505050565b6000804391506112658585846108fb565b905060006002600083600019166000191681526020019081526020016000206000015414151561129457600080fd5b6000600260008360001916600019168152602001908152602001600020600101541415156112c157600080fd5b60806040519081016040528084815260200183815260200142815260200162093a804201815250600260008360001916600019168152602001908152602001600020600082015181600001556020820151816001015560408201518160020155606082015181600301559050508373ffffffffffffffffffffffffffffffffffffffff168573ffffffffffffffffffffffffffffffffffffffff167fa55ac5ebdb9bee5da90c5d4a6f104e5e2c116f97967ae2eb73f5fdfbdbb75bcb856040518082815260200191505060405180910390a35050505050565b60008282111515156113a857fe5b818303905092915050565b6080604051908101604052806000815260200160008152602001600081526020016000815250905600a165627a7a723058202bf73fa8527d6f22fc2d0493aeef444d19b3d642cf04910cbb7619f5ad54eecb0029",
  "source": "pragma solidity ^0.4.22;\n\nimport \"./CustomToken.sol\";\nimport \"./ECVerify.sol\";\n\ncontract ChannelManager {\n    using SafeMath for uint256;\n\n    uint256 public constant channel_min_deposit_limit = 10 ** 18 * 100;\n    address public owner_address;\n    CustomToken public token;\n\n    struct Channel {\n        uint256 deposit;                                                   // Total Channel Balance\n        uint256 open_block_number;                                       // Block Nubmer when Channel is opened\n        uint256 startTime;                                                 // Channel start date \n        uint256 expiryTime;                                                // Channel Expiry Date        \n    }   \n\n    mapping (bytes32 => Channel) public channels;\n\n    /*\n     *  Events\n     */\n    event ChannelCreated(\n    address indexed _sender_address,\n    address indexed _receiver_address,\n    uint256 _deposit);\n\n    event ChannelSettled(\n    address indexed _sender_address,\n    address indexed _receiver_address,\n    uint256 indexed _open_block_number,\n    uint256 _balance,\n    uint256 _receiver_tokens);\n\n    constructor(address _token_address) public {\n        token = CustomToken(_token_address);\n        owner_address = msg.sender;\n    }\n    /*\n     *  External functions \n     */\n    /// @notice Creates a new channel between `msg.sender` and `_receiver_address` and transfers\n    /// the `_deposit` token deposit to this contract. Compatibility with ERC20 tokens.\n    /// @param _receiver_address The address that receives tokens.\n    /// @param _deposit The amount of tokens that the sender escrows.\n    function createChannel(address _receiver_address, uint256 _deposit) external {\n        _createChannelPrivate(msg.sender, _receiver_address, _deposit);\n   \n    }\n\n    /// @notice Function called by the sender, receiver or a delegate, with all the needed\n    /// signatures to close the channel and settle immediately.\n    /// @param _receiver_address The address that receives tokens.\n    /// @param _open_block_number The block number at which a channel between the\n    /// sender and receiver was created.\n    /// @param _balance The amount of tokens owed by the sender to the receiver.\n    /// @param _balance_msg_sig The balance message signed by the sender.\n    /// @param _closing_sig The receiver's signed balance message, containing the sender's address.\n    function channelClose(\n        address _receiver_address,\n        uint256 _open_block_number,\n        uint256 _balance,\n        bytes _balance_msg_sig,\n        bytes _closing_sig)\n        external\n    {\n        // Derive sender address from signed balance proof\n        address sender = extractBalanceProofSignature(\n            _receiver_address,\n            _open_block_number,\n            _balance,\n            _balance_msg_sig\n        );\n\n        // Derive receiver address from closing signature\n        address receiver = extractClosingSignature(\n            sender,\n            _open_block_number,\n            _balance,\n            _closing_sig\n        );\n\n        require(receiver == _receiver_address);\n\n        // Both signatures have been verified and the channel can be settled.\n        settleChannel(sender, receiver, _open_block_number, _balance);\n    }\n    \n    /*\n     *  Private functions\n     */\n\n    /// @dev Creates a new channel between a sender and a receiver.\n    /// @param _sender_address The address that sends tokens.\n    /// @param _receiver_address The address that receives tokens.\n    /// @param _deposit The amount of tokens that the sender escrows.\n    function _createChannelPrivate(\n        address _sender_address,\n        address _receiver_address,\n        uint256 _deposit)\n        private\n    {\n\n        //uint32 open_block_number = uint32(block.number);\n        uint256 open_block_number = block.number;\n\n        // Create unique identifier from sender, receiver and current block number\n        bytes32 key = getKey(_sender_address, _receiver_address, open_block_number);\n\n        require(channels[key].deposit == 0);\n        require(channels[key].open_block_number == 0);\n    \n        // Store channel information\n        channels[key] = Channel({deposit: _deposit, open_block_number: open_block_number, startTime: block.timestamp, expiryTime: (block.timestamp + 7 days)});\n        emit ChannelCreated(_sender_address, _receiver_address, _deposit);\n    }\n\n    /// @dev Deletes the channel and settles by transfering the balance to the receiver\n    /// and the rest of the deposit back to the sender.\n    /// @param _sender_address The address that sends tokens.\n    /// @param _receiver_address The address that receives tokens.\n    /// @param _open_block_number The block number at which a channel between the\n    /// sender and receiver was created.\n    /// @param _balance The amount of tokens owed by the sender to the receiver.\n    function settleChannel(\n        address _sender_address,\n        address _receiver_address,\n        uint256 _open_block_number,\n        uint256 _balance)\n        private\n    {\n        bytes32 key = getKey(_sender_address, _receiver_address, _open_block_number);\n        Channel memory channel = channels[key];\n\n        require(channel.open_block_number > 0);\n        require(_balance <= channel.deposit);\n\n        // Remove closed channel structures\n        // channel.open_block_number will become 0\n        // Change state before transfer call\n        delete channels[key];\n        //delete closing_requests[key];\n\n        // Send the unwithdrawn _balance to the receiver\n        uint256 receiver_remaining_tokens = _balance;\n        require(token.transfer(_receiver_address, _balance));\n\n        // Send deposit - balance back to sender\n        require(token.transfer(_sender_address, channel.deposit.sub(_balance)));\n\n        emit ChannelSettled(\n            _sender_address,\n            _receiver_address,\n            _open_block_number,\n            _balance,\n            receiver_remaining_tokens\n        );\n    }\n\n    /*\n    Public Functions\n    */\n\n    /// @notice Returns the sender address extracted from the balance proof.\n    /// @param _receiver_address The address that receives tokens.\n    /// @param _open_block_number The block number at which a channel between the\n    /// sender and receiver was created.\n    /// @param _balance The amount of tokens owed by the sender to the receiver.\n    /// @param _balance_msg_sig The balance message signed by the sender.\n    /// @return Address of the balance proof signer.\n    function extractBalanceProofSignature(\n        address _receiver_address,\n        uint256 _open_block_number,\n        uint256 _balance,\n        bytes _balance_msg_sig)\n        public\n        view\n        returns (address)\n    {\n        // The variable names from below will be shown to the sender when signing\n        // the balance proof, so they have to be kept in sync with the Dapp client.\n        // The hashed strings should be kept in sync with this function's parameters\n        // (variable names and types).\n        bytes32 message_hash = keccak256(\n            abi.encodePacked(\n        keccak256(\n            abi.encodePacked(\n            'string message_id',\n            'address receiver',\n            'uint32 block_created',\n            'uint192 balance',\n            'address contract'\n        )),\n        keccak256(\n            abi.encodePacked(\n            \"Sender balance proof signature\",\n            _receiver_address,\n            _open_block_number,\n            _balance,\n            address(this)\n        ))\n        ));\n\n        // Derive address from signature\n        address signer = ECVerify.ecverify(message_hash, _balance_msg_sig);\n        return signer;\n    }\n\n    /// @dev Returns the receiver address extracted from the closing signature.\n    /// Works with eth_signTypedData https://github.com/ethereum/EIPs/pull/712.\n    /// @param _sender_address The address that sends tokens.\n    /// @param _open_block_number The block number at which a channel between the\n    /// sender and receiver was created.\n    /// @param _balance The amount of tokens owed by the sender to the receiver.\n    /// @param _closing_sig The receiver's signed balance message, containing the sender's address.\n    /// @return Address of the closing signature signer.\n    function extractClosingSignature(\n        address _sender_address,\n        uint256 _open_block_number,\n        uint256 _balance,\n        bytes _closing_sig)\n        public\n        view\n        returns (address)\n    {\n        // The variable names from below will be shown to the sender when signing\n        // the balance proof, so they have to be kept in sync with the Dapp client.\n        // The hashed strings should be kept in sync with this function's parameters\n        // (variable names and types).\n        // ! Note that EIP712 might change how hashing is done, triggering a\n        // new contract deployment with updated code.\n        bytes32 message_hash = keccak256(\n            abi.encodePacked(\n            keccak256(\n                abi.encodePacked(\n                'string message_id',\n                'address sender',\n                'uint32 block_created',\n                'uint192 balance',\n                'address contract'\n            )),\n            keccak256(\n                abi.encodePacked(\n                \"Receiver closing signature\",\n                _sender_address,\n                _open_block_number,\n                _balance,\n                address(this)\n            ))\n        ));\n\n        // Derive address from signature\n        address signer = ECVerify.ecverify(message_hash, _closing_sig);\n        return signer;\n    }\n\n    /// @notice Returns the unique channel identifier used in the contract.\n    /// @param _sender_address The address that sends tokens.\n    /// @param _receiver_address The address that receives tokens.\n    /// @param _open_block_number The block number at which a channel between the\n    /// sender and receiver was created.\n    /// @return Unique channel identifier.\n    function getKey(\n        address _sender_address,\n        address _receiver_address,\n        uint256 _open_block_number)\n        public\n        pure\n        returns (bytes32 data)\n    {\n        return keccak256(abi.encodePacked(_sender_address, _receiver_address, _open_block_number));\n    }\n\n}",
  "sourcePath": "/home/dev-d/Desktop/BlockChain/LakePOC/contracts/ChannelManager.sol",
  "compiler": {
    "name": "solc",
    "version": "0.4.24+commit.e67f0147.Emscripten.clang"
  },
  "schemaVersion": "2.0.1",
  "updatedAt": "2018-09-19T11:56:17.508Z"
}